:100000000C9403010C942B010C942B010C942B01E8
:100010000C942B010C942B010C942B010C942B01B0
:100020000C942B010C942B010C94680B0C94DA0BA0
:100030000C942B010C942B010C942B010C942B0190
:100040000C942B010C9439050C942B010C942B016E
:100050000C942B010C942B010C942B010C945E033B
:100060000C942B010C943D0E0C94170E0C942B0148
:100070000C942B010C942B010C942B010C942B0150
:100080000C942B010C942B010C942B010C942B0140
:100090000C9490060C942B010C942B010C942B01C6
:1000A0000C942B010C942B010C942B01E501E8011D
:1000B000D701DB01E101090209020902EC01F001AB
:1000C000F401FA01FE01090204029D02A202A70244
:1000D000B102BB02050305030503C502CF02D90225
:1000E000E302F0020503F8020000000200090F001D
:1000F00000030401000C00000000000000000000EC
:10010000000000000000000000000023002600297D
:10011000002C002F0004040404040304050202025E
:100120000204030202020206060606060604040290
:1001300002020404040802011040804010204080A4
:10014000408008020401804020100201108010202D
:10015000404020070605040100080A0B0C0D0900A9
:10016000000000240027002A002D003000000000BD
:1001700000250028002B002E003100080B00020291
:100180000201000904000001020200000524001021
:1001900001052401010104240206052406000107CB
:1001A00005810310004009040100020A0000000755
:1001B0000502024000000705830240000004030915
:1001C0000441726475696E6F204C4C430041726447
:1001D00075696E6F204C656F6E6172646F001201FD
:1001E00000020000004041233680000101020301AB
:1001F00012010002EF02014041233680000101029A
:1002000003010315F71411241FBECFEFDAE0DEBFA0
:10021000CDBF14E0A0E0B1E0EAE7F6E302C005904C
:100220000D92A03CB107D9F727E0A0ECB4E001C0E3
:100230001D92A43CB207E1F711E0C2E0D1E004C096
:100240002197FE010E944416C130D107C9F70E94D0
:10025000760F0C94301B0C940000FC01848595856E
:1002600097FD0BC09FB7F89482E08093E9008091DE
:10027000F2009FBF90E0019608959FB7F89482E046
:100280008093E9008091F2009FBF90E0089585ED92
:100290008093BC008091BC0084FDFCCF1092F705D8
:1002A00008954091D105262F30E0240F311D2132D1
:1002B0003105DCF42091F7052430C9F4FC0180E01D
:1002C00090E0861758F43091D1052191DC01A155B9
:1002D000BA4FA30FB11D2C930196F3CF8091D10596
:1002E000680F6093D10580E0089581E0089582E071
:1002F000089508958FEF9FEF08958FEF9FEF089572
:100300008091AE0590E09195819591090895CF93E4
:10031000DF9300D0CDB7DEB7CB01642F49835A837A
:100320000E9451014981842F5A81952F0F900F907F
:10033000DF91CF910895CF93DF931F92CDB7DEB7B2
:10034000698361E0CE0101960E94510181E090E055
:100350000F90DF91CF9108958BE296E00E941209F1
:10036000892BD1F08BE296E00E94F0082091C30423
:100370003091C404F901E953FB4F80832F5F3F4F55
:100380003093C4042093C304243631052CF3109217
:10039000C4041092C304E0CF089590E0FC013197AB
:1003A000EF30F105B0F5EA5AFF4F0C9444168091F6
:1003B00080008F7703C0809180008F7D80938000C4
:1003C000089580918000877FF9CF84B58F7702C030
:1003D00084B58F7D84BD0895809190008F7707C08C
:1003E000809190008F7D03C080919000877F8093E3
:1003F000900008958091C0008F7703C08091C00065
:100400008F7D8093C00008958091C200877F809384
:10041000C20008951F93CF93DF93282F30E0F90196
:10042000E851FF4F8491F901EC5CFE4FD491F90142
:10043000EB5EFE4FC491CC23C9F0162F81110E94B0
:10044000CD01EC2FF0E0EE0FFF1FE359FE4FA59119
:10045000B4918FB7F894111105C09C91ED2FE095E0
:10046000E92302C0EC91ED2BEC938FBFDF91CF918C
:100470001F910895CF93DF9390E0FC01EC5CFE4F59
:100480002491FC01EB5EFE4F8491882361F190E0A2
:10049000880F991FFC01E15AFE4FC591D491FC01D0
:1004A000E359FE4FA591B491611109C09FB7F8942B
:1004B0008881209582238883EC912E230BC06230A3
:1004C00061F49FB7F8943881822F809583238883C5
:1004D000EC912E2B2C939FBF06C08FB7F894E88128
:1004E0002E2B28838FBFDF91CF9108951F93CF9339
:1004F000DF93182FEB0161E00E943A02209711F47C
:1005000060E004C0CF3FD10539F461E0812FDF9175
:10051000CF911F910C940A02E12FF0E0E851FF4FB8
:10052000E4914E2F50E0FA013197EF30F10508F0D9
:100530006CC0EB59FF4F0C94441684B5806884BDA1
:10054000C7BD68C084B5806284BDC8BD63C08091EA
:100550008000806880938000D0938900C0938800D9
:1005600059C080918000806280938000D0938B007E
:10057000C0938A004FC08091800088608093800083
:10058000D0938D00C0938C0045C08091900080680E
:1005900080939000D0939900C09398003BC08091C5
:1005A0009000806280939000D0939B00C0939A004B
:1005B00031C080919000886080939000D0939D001E
:1005C000C0939C0027C08091C00080688093C000C9
:1005D0008091C0008F7B8093C000C093CF001AC071
:1005E0008091C00080628093C000C093D00012C090
:1005F0008091C20088608093C2008091C2008B7F8E
:100600008093C200C093D20005C0C038D1050CF061
:100610007CCF76CFDF91CF911F910895823108F082
:100620008251E82FF0E0ED5AFE4FE49180917B007B
:10063000E3FB222720F930E095E0220F331F9A9543
:10064000E1F78F7D282B20937B00E770E064E09337
:100650007C0080917A00806480937A0080917A0097
:1006600086FDFCCF809178002091790090E0922B5C
:1006700008953FB7F89480911F0690912006A091AD
:100680002106B091220626B5A89B05C02F3F19F080
:100690000196A11DB11D3FBFBA2FA92F982F882702
:1006A000820F911DA11DB11DBC01CD0142E0660F5D
:1006B000771F881F991F4A95D1F708951F920F92AF
:1006C0000FB60F9211242F933F938F939F93AF9365
:1006D000BF9380912B0590912C05A0912D05B09191
:1006E0002E0530911E0623E0230F2D3720F40196AE
:1006F000A11DB11D05C026E8230F0296A11DB11D45
:1007000020931E0680932B0590932C05A0932D0516
:10071000B0932E0580911F0690912006A09121068E
:10072000B09122060196A11DB11D80931F069093E2
:100730002006A0932106B0932206BF91AF919F910E
:100740008F913F912F910F900FBE0F901F90189592
:100750002F923F924F925F926F927F928F929F92D1
:10076000AF92BF92CF92DF92EF92FF920F931F93BF
:10077000CF93DF9300D0CDB7DEB78C0149832A83B6
:10078000660F771FF801EA5AFF4FE080F180EE0C08
:10079000FF1CF801CF01801B910B8E159F0514F4EF
:1007A0001192F8CF8981F801E60FF71F81838A81C2
:1007B0008083580184E5A80EB11C60E0F5018081BA
:1007C0000E940A02E00EF11E4801F2E58F0E911C14
:1007D000380180E5680E711CC701801B910B18164B
:1007E000190624F5F701C2907F01F4013080F3016E
:1007F000208087E0482E512CD12CB601042C02C059
:10080000759567950A94E2F761707727822D0E94AB
:100810000A0261E0832D0E940A0260E0832D0E949B
:100820000A02F1E04F1A510840F7D6CF61E0F50116
:1008300080810F900F90DF91CF911F910F91FF90CA
:10084000EF90DF90CF90BF90AF909F908F907F9070
:100850006F905F904F903F902F900C940A02CF9230
:10086000DF92EF92FF920F931F93CF93DF938C0150
:100870007B016B0183E0CC0CDD1C8A95E1F7C1E0C4
:10088000D0E0FE01EC0DFD1DE00FF11F178620E00A
:100890004C2FB701C8010E94A8032196C930D10589
:1008A00081F7DF91CF911F910F91FF90EF90DF9033
:1008B000CF900895CF92DF92EF92FF92CF93DF9384
:1008C000EC01603282E078070CF03DC077FD06C095
:1008D000653B71052CF064EB70E002C060E070E0F5
:1008E000898128E830E06901C81AD10887FDD394CE
:1008F000CC0CDD1CCC0CDD1C0D2C000CEE08FF0814
:100900008A8128E532E0281B310987FD3395220FC3
:10091000331F220F331FC901330FAA0BBB0B9C01DE
:10092000AD012C193D094E095F09DB010E94C01A77
:1009300024EB30E040E050E00E94961AC20ED31E35
:10094000E41EF51EB60188818C3080F5998148E857
:1009500050E0491B510997FD5395440F551F440F13
:10096000551F6417750784F09A8128E532E0291B2A
:10097000310997FD3395220F331F220F331FAB012F
:10098000261737070CF4A90142505109440F551F8F
:100990002FB7F89490E0FC01EE0FFF1F8E0F9F1F02
:1009A000FC01E85EF84F528341832FBFDF91CF9166
:1009B000FF90EF90DF90CF9008951F93CF93DF9338
:1009C000EC01162F88818C3008F04EC061E0812F39
:1009D0000E943A028881E82FF0E09F01220F331F26
:1009E000E20FF31FE85EF84F1F739081907C192B84
:1009F000108319821A826CE00E9438169CE0899F4D
:100A0000B001112440E050E09A01260F371FF90190
:100A1000EE0FFF1F2E0F3F1FF901E85EF84F908188
:100A200096FD16C04F5F5F4F4C30510569F781113D
:100A30000FC01092800082E08093810010928500A8
:100A400010928400B19A80916F00826080936F0051
:100A5000E881F0E0CF01880F991FE80FF91FE85EE9
:100A6000F84F8081806480838881DF91CF911F91CE
:100A700008951F920F920FB60F9211242F933F9358
:100A80004F935F936F937F938F939F93AF93BF9396
:100A9000EF93FF9380911D0687FF05C0109285009C
:100AA000109284001BC020911D06022E000C330BF7
:100AB00080913C0790E02817390784F480911D0647
:100AC000082E000C990BFC01EE0FFF1F8E0F9F1FCD
:100AD000FC01E85EF84F808186FD15C080911D06FF
:100AE0008F5F80931D0620911D06022E000C330B94
:100AF00080913C0790E028173907C4F480911D06C7
:100B00008C3064F113C080911D06082E000C990BE7
:100B1000FC01EE0FFF1F8E0F9F1FFC01E85EF84FD8
:100B2000808160E08F730E940A02D8CF8091840098
:100B300090918500049680349C4918F480E49CE9E7
:100B400005C080918400909185000496909389005F
:100B5000809388008FEF80931D063BC02091840016
:100B60003091850080911D06082E000C990BFC0128
:100B7000EE0FFF1F8E0F9F1FFC01E85EF84F818173
:100B80009281820F931F90938900809388008091B7
:100B90001D06082E000C990BFC01EE0FFF1F8E0F97
:100BA0009F1FFC01E85EF84F808186FF12C0809194
:100BB0001D06082E000C990BFC01EE0FFF1F8E0F77
:100BC0009F1FFC01E85EF84F808161E08F730E94F7
:100BD0000A02FF91EF91BF91AF919F918F917F9109
:100BE0006F915F914F913F912F910F900FBE0F909A
:100BF0001F90189560E08CE00E943A0260E08DE062
:100C00000E943A0261E083E00E943A0261E084E0DF
:100C10000E943A0261E085E00E943A0261E086E0CB
:100C20000E943A0261E087E00E943A0261E088E0B7
:100C30000E943A0261E089E00E943A0261E08AE0A3
:100C40000E943A0261E08BE00E943A0261E082E099
:100C50000E943A0260E083E00E940A0260E084E0C1
:100C60000E940A0260E070E085E00E94760260E087
:100C700070E086E00E94760260E087E00E940A024F
:100C800060E088E00E940A0260E089E00E940A02B7
:100C900060E08AE00E940A0260E08BE00E940A02A3
:100CA00060E082E00E940A028091A0079091A10773
:100CB0001816190644F421E04CE060E070E08AE484
:100CC00097E00E94A8038091A0079091A1071816B1
:100CD000190644F424E04AE060E070E08AE497E01A
:100CE0000E94A8038091A0079091A10718161906E9
:100CF00034F460E070E08AE497E00E942F041092E0
:100D0000C4041092C3041092C6041092C504109239
:100D10003205109231051092300510922F0508957A
:100D20001F920F920FB60F9211242F933F934F9360
:100D30005F936F937F938F939F93AF93BF93EF9343
:100D4000FF938091B900887F803609F49CC068F5D4
:100D5000883209F45BC090F4803109F454C038F44F
:100D6000882309F4F6C0883009F44DC0F6C08831F4
:100D700009F44CC0803209F45DC0EFC0803409F43E
:100D800068C048F4803309F455C0883309F0E5C0E1
:100D90008093F605D8C0803509F44FC0883509F432
:100DA0005DC0883409F0D9C0D6C0883909F4C7C0FD
:100DB000A8F4883709F467C038F4883609F463C0AA
:100DC000803709F460C0C9C0883809F4B8C08039D8
:100DD00009F45FC0803809F0C0C05BC0803B09F4F3
:100DE00086C038F4803A09F466C0883A09F47FC0B6
:100DF000B4C0803C09F4A7C0883C09F4A4C0883B77
:100E000009F48AC0AAC080911C0610C090911B06EC
:100E100080911A06981770F5E0911B0681E08E0FFD
:100E200080931B06F0E0E650FA4F80818093BB0070
:100E300085EC86C08093F6058EC0E0911B0681E0AC
:100E40008E0F80931B068091BB00F0E0E650FA4FB6
:100E5000808390911B0680911A066EC0E0911B065C
:100E600081E08E0F80931B068091BB00F0E0E6507E
:100E7000FA4F80838091F90581116DC081E08093E4
:100E8000F80584EA61C083E08093F7051092F505C8
:100E9000CFCF8091F505803208F051C0E091F50583
:100EA00081E08E0F8093F5058091BB00F0E0EB525E
:100EB000FA4F8083BDCF85EC8093BC001092F7057C
:100EC0008091F505803230F4E091F505F0E0EB52C9
:100ED000FA4F10826091F50570E0E091D305F09132
:100EE000D40585ED95E009951092F50536C084E0AE
:100EF0008093F7051092D2051092D105E091CF05AD
:100F0000F091D00509958091D105811105C081E04E
:100F10008093D1051092AF05E091D20581E08E0F4C
:100F20008093D205F0E0E155FA4F80818093BB00B9
:100F30009091D2058091D105981708F479CF85E872
:100F40008093BC000AC085EC8093BC001092F7052A
:100F500004C01092F6050E944701FF91EF91BF91E6
:100F6000AF919F918F917F916F915F914F913F9141
:100F70002F910F900FBE0F901F901895682F88EC3F
:100F800096E00C94B809CF92DF92FF920F931F93D3
:100F9000CF93DF931F92CDB7DEB7162FF72E082F12
:100FA00082E099830E94BE078AEAC82E85E0D82E87
:100FB000412F5F2D602F9981792FF6014083518356
:100FC00062837383812F0E94BE07F60181810E9494
:100FD000BE07F60182810E94BE07F60183810F9051
:100FE000DF91CF911F910F91FF90DF90CF900C94E4
:100FF000BE07EF92FF920F931F93CF93DF937C0175
:10100000FC01C4810C2F158184E00E94BE078C2F47
:101010000E94BE07C0E0D0E0C017D10744F4BE0173
:10102000C7010E94D60A0E94BE072196F5CFDF9124
:10103000CF911F910F91FF90EF9008958FEF0E9435
:10104000BE0785E50E94BE070C946F0E40912606F0
:101050005091270620912406309125064217530708
:10106000B4F49091E8009570E1F39091E80092FD5E
:1010700019C08093F1008091260690912706019671
:101080008F739927892B19F48EEF8093E800809154
:1010900026069091270601969093270680932606B0
:1010A00081E0089580E00895CF92DF92EF92FF9261
:1010B0000F931F93CF93DF931F92CDB7DEB7182FF7
:1010C000062FE42E862F880F8E5F99830E942608B4
:1010D00083E00E942608F12EC12E9981D92E8C2DF5
:1010E0008F19801798F4F601E7FE02C0849101C0C1
:1010F00080810E942608182F80E00E942608812304
:10110000FFEFCF1ADF0A8111EACF01C081E00F9013
:10111000DF91CF911F910F91FF90EF90DF90CF90D3
:101120000895DF92EF92FF920F931F93CF93DF9377
:10113000D82E8A017B01E40EF51EEB01CE15DF05EA
:1011400071F0D7FE03C0FE01849101C088810E9426
:10115000260821968111F2CF8FEF9FEF01C0C801C1
:10116000DF91CF911F910F91FF90EF90DF90089545
:10117000615030F02091F100FC0120830196F8CFFE
:10118000289884E6809329060895CF92DF92EF9203
:10119000FF920F931F93CF93DF936C017A018B0122
:1011A000C0E0D0E0CE15DF0589F0D8016D918D014A
:1011B000D601ED91FC910190F081E02DC6010995D9
:1011C000892B11F47E0102C02196ECCFC701DF917B
:1011D000CF911F910F91FF90EF90DF90CF900895E6
:1011E000FC01918D828D981761F0828DDF01A80F2F
:1011F000B11D5D968C91928D9F5F9F73928F90E051
:1012000008958FEF9FEF0895FC01918D828D9817BF
:1012100031F0828DE80FF11D858D90E008958FEFFC
:101220009FEF0895FC01918D228D892F90E0805CC5
:101230009F4F821B91098F73992708958BE296E047
:101240000E94120921E0892B09F420E0822F0895E1
:10125000FC01848DDF01A80FB11DA35ABF4F2C9153
:10126000848D90E001968F739927848FA689B78922
:101270002C93A089B1898C9180648C93938D848DFB
:10128000981306C00288F389E02D80818F7D8083CA
:101290000895EF92FF920F931F93CF93DF93EC018A
:1012A00081E0888F9B8D8C8D981305C0E889F98922
:1012B000808185FD24C0F62E0B8D10E00F5F1F4F3F
:1012C0000F731127E02E8C8DE8120CC00FB607FCAF
:1012D000FACFE889F989808185FFF5CFCE010E9498
:1012E0002809F1CF8B8DFE01E80FF11DE35AFF4F66
:1012F000F0820B8FEA89FB898081806207C0EE89CA
:10130000FF896083E889F98980818064808381E036
:1013100090E0DF91CF911F910F91FF90EF90089592
:10132000CF93DF93EC01888D8823C9F0EA89FB898C
:10133000808185FD05C0A889B9898C9186FD0FC083
:101340000FB607FCF5CF808185FFF2CFA889B98958
:101350008C9185FFEDCFCE010E942809E7CFDF9168
:10136000CF9108950E941E0981110C94AC0108953B
:10137000CF93DF931F92CDB7DEB76983DC01ED9188
:10138000FC910280F381E02D41E050E0BE016F5FEF
:101390007F4F09950F90DF91CF91089583E080935F
:1013A000E9008091F200882319F08AE38093E80035
:1013B00008950E9462190F931F93CF93DF931F929A
:1013C000CDB7DEB782E0898342E450E06BE771E09D
:1013D00080E80E9491080E941D0FDC0112960D9179
:1013E0001C9113970115110569F0D801ED91FC913D
:1013F0000280F381E02DBE016F5F7F4FC801099528
:1014000097FF07C089810F90DF91CF911F910F91B6
:101410000895F80100851185E5CF8F929F92AF92D4
:10142000BF92CF92DF92EF92FF920F931F93CF93D1
:10143000DF935C016B018A0180910B01882309F421
:1014400059C080912A06882309F454C08091C104B0
:1014500080FF05C08091E00082608093E000E80199
:101460008AEFF82E93E0E92E2FE3822E3AE3932EB3
:101470002097C9F18FB7F894E092E9009091E800C5
:1014800095FF06C09091F200282D291B922F01C0D4
:1014900090E08FBF911106C0FA94FF2059F10E948D
:1014A000030FE6CF292F30E0C217D3070CF49C2F8F
:1014B0008FB7F894E092E9002091E80025FF11C071
:1014C000292F30E0C21BD30BF601915020F041913F
:1014D0004093F100FACFC20ED31E9091E80095FF21
:1014E00013C08FBFC5CF5D9884E680932806101681
:1014F000110644F081E090E0F5019383828380E05F
:1015000090E005C0C80103C09092E800EACFDF91E7
:10151000CF911F910F91FF90EF90DF90CF90BF90F0
:10152000AF909F908F9008950F931F93CF93DF9369
:101530001F92CDB7DEB78C01FC018485958597FF9E
:101540000EC0CE0101960E94D90E019719F429818F
:1015500030E002C02FEF3FEFF80135872487F80114
:10156000848595850F90DF91CF911F910F910895FC
:10157000CF93DF931F92CDB7DEB7FC0184859585AD
:1015800097FD05C02FEF3FEF358724870BC0CE01B5
:1015900001960E94D90E019719F4898190E002C04A
:1015A0008FEF9FEF0F90DF91CF910895FC01248181
:1015B00035816217730748F480819181009729F083
:1015C000FC01E60FF71F8081089580E008950F93D6
:1015D0001F93CF93DF93EC0188819981009729F0C5
:1015E0002A813B812617370788F48B016F5F7F4F75
:1015F0000E949818009761F0998388831B830A835F
:101600002C813D81232B11F4FC01108281E001C06B
:1016100080E0DF91CF911F910F910895EF92FF929B
:101620000F931F93CF93DF93EC017B018A01BA01E3
:101630000E94E70A2881398181110DC021153105E9
:1016400019F0C9010E940018198218821D821C829B
:101650001B821A8206C01D830C83B701C9010E9438
:101660007019CE01DF91CF911F910F91FF90EF90F4
:101670000895FB01DC0111961C921E9213961C9298
:101680001E92129715961C921E9214978617970712
:1016900049F0608171816115710521F044815581A6
:1016A0000C940E0B0895FC01118210821382128299
:1016B000158214826115710551F0FB010190002023
:1016C000E9F73197AF01461B570B0C940E0B0895A9
:1016D0001F920F920FB60F9211248F939F938091B8
:1016E000E1009091E100937F9093E10083FF0FC0B0
:1016F0001092E90091E09093EB001092EC0092E3DD
:101700009093ED0010922A0698E09093F00082FFEB
:1017100020C093E09093E9009091F200992319F092
:101720009AE39093E80090912806992339F09091DC
:101730002806915090932806992389F190912906C3
:10174000992339F090912906915090932906992375
:1017500041F184FF10C08091E2008E7E8160809311
:10176000E2008091E1008F7E8093E1008091C104CE
:101770008E7E806111C080FF16C08091E2008E7E57
:1017800080618093E2008091E1008E7E8093E10091
:101790008091C1048E7E81608093C10404C05D9AF3
:1017A000CDCF289AD6CF9F918F910F900FBE0F90DB
:1017B0001F9018951F920F920FB60F921124CF927F
:1017C000DF92EF92FF920F931F932F933F934F93CC
:1017D0005F936F937F938F939F93AF93BF93EF9399
:1017E000FF93CF93DF93CDB7DEB76C97DEBFCDBF4E
:1017F0001092E9008091E80083FFFAC168E0CE0111
:1018000045960E94B80882EF8093E8008D8987FF93
:1018100005C09091E80090FFFCCF03C09EEF90932D
:10182000E800982F907609F0C6C09E892F89188D00
:1018300091110CC0803829F48091C2048093F1008A
:1018400002C01092F1001092F10047C1422F50E007
:10185000512B913051F4811140C14130510509F0B3
:101860003CC18091C2048D7F0BC0933061F4811123
:1018700034C14130510509F030C18091C204826009
:101880008093C2042AC1953041F48091E80080FF22
:10189000FCCF20682093E30020C1963009F05FC0A0
:1018A000EB8CFC8C1092E900109227061092260611
:1018B000123091F510922506109224060E94DB0941
:1018C00099E0BE016F5F7F4FDB01E92F1D92EA9522
:1018D000E9F799831A8391E09E8390EA98879AEFBB
:1018E00099872091260630912706275F3F4F3C833A
:1018F0002B838D831092E900109227061092260602
:10190000F0922506E092240649E050E080E00E9433
:1019100091080E94DB09E1C0F0922506E0922406BE
:101920000E941D0FDC011296ED90FC901397E114BC
:10193000F10409F4C0C0D701ED91FC910480F58158
:10194000E02DBE016B5E7F4FC7010995009719F02E
:101950000CF0C3C0C6C0F701E084F184E8CF973033
:1019600009F4BFC0983021F481E08093F100B5C044
:10197000993009F0B2C0837009F0B3C0EFE7F4E02A
:1019800081E021E036E39081992361F08093E900C2
:101990002093EB0091919093EC003093ED008F5FDA
:1019A000873089F78EE78093EA001092EA008F89EA
:1019B00080932A0692C08B8D9C8D1092E900109224
:1019C0002706109226069093250680932406898D7B
:1019D000811156C08E899D89913A59F4813209F05E
:1019E00080C047E050E064E071E080E00E94910830
:1019F00074C0913209F075C0833289F4888D90E00B
:101A0000982F88272F89822BA0E0B0E080930001D7
:101A100090930101A0930201B09303015EC0803254
:101A200069F48091E80082FFFCCF67E084E091E0F8
:101A30000E94B8088BEF8093E80006C0823209F05C
:101A40004CC08F8980930B018091C004882319F0CA
:101A5000EEEFFAE002C0E0E0F8E08091040190913E
:101A60000501A0910601B0910701803B9440A105BA
:101A7000B10509F088C080910B0180FFA0C083C030
:101A80000E941D0FDC0112960D911C9113970115F8
:101A9000110539F1D801ED91FC910190F081E02D13
:101AA000BE016B5E7F4FC8010995811116C0F80118
:101AB00000851185ECCF1130C1F0133091F48F897E
:101AC000882309F455C08230E9F440E860E18DECE8
:101AD00091E00E945408882321F08EEF8093E80063
:101AE00087C081E28093EB0083C08B8D9C8D08972B
:101AF00011F41093230680912306811136C06EEDF8
:101B000071E038C0813029F440E86BE081EC91E06D
:101B1000E0CF833031F70E941D0FDC011296ED906B
:101B2000FC9013978E010F5F1F4F6801E114F104C1
:101B300079F0D701ED91FC910680F781E02DB80195
:101B4000C7010995080F111DF701E084F184EECF5C
:101B5000D8011C92F60101900020E9F73197BF01EE
:101B60006C197D0940E0C601B4CF60EF71E002C09E
:101B70006DEB71E06115710509F4B3CFFB01449180
:101B800050E080E833CF0FB6F894A89580916000BC
:101B9000886180936000109260000FBEA895EE3FB0
:101BA0002AE0F20739F08091FE0A9091FF0A9183B2
:101BB000808393CF1092FF0A1092FE0A8ECFEE3FE1
:101BC0008AE0F80731F0808191819093FF0A809339
:101BD000FE0A87E797E7918380839BE088E10FB651
:101BE000F894A895809360000FBE9093600075CF25
:101BF0006C960FB6F894DEBF0FBECDBFDF91CF91CC
:101C0000FF91EF91BF91AF919F918F917F916F91D4
:101C10005F914F913F912F911F910F91FF90EF9006
:101C2000DF90CF900F900FBE0F901F9018951F92CE
:101C30000F920FB60F9211242F933F934F935F9300
:101C40006F937F938F939F93AF93BF93EF93FF9384
:101C50008BE296E00E942809FF91EF91BF91AF912E
:101C60009F918F917F916F915F914F913F912F91B4
:101C70000F900FBE0F901F9018951F920F920FB6E6
:101C80000F9211242F938F939F93EF93FF93E091E3
:101C90003B06F0913C068081E0914106F0914206BE
:101CA00082FD12C09081809144068F5F8F732091D6
:101CB0004506821751F0E0914406F0E0E55DF94FEA
:101CC000958F8093440601C08081FF91EF919F9191
:101CD0008F912F910F900FBE0F901F901895E0914C
:101CE000C806F091C9060280F381E02D42E050E081
:101CF0006DEB74E088EC96E00994EF92FF920F93FD
:101D00001F93CF93DF938C01FC01E480F580C0E04A
:101D1000D0E0CE15DF0594F4BE01C8010E94D60ABA
:101D2000682F8D3011F08A3011F42196F2CF85356D
:101D3000E1F38BE296E00E944909F7CFDF91CF9162
:101D40001F910F91FF90EF90089520E830E002C0BE
:101D5000359527956A95E2F7FC01E65BF84F442339
:101D600019F03089232B03C0209530892323208B41
:101D700041E0480F208960E070E08AE497E00C942D
:101D8000A803262F4091A0075091A107141615060D
:101D90007CF48830910560F4FC01E65BF84F608BC1
:101DA00041E0480F60E070E08AE497E00C94A803FB
:101DB0000895FC0180912A06811103C08FEF9FEFE7
:101DC00008959FB7F89482E08093E9002091F20093
:101DD00030E01216130614F421E030E0211531052D
:101DE00059F0289884E6809329068091F100808339
:101DF0008091F200882319F09FBFC90108958BE6F6
:101E00008093E800F9CFCF92DF92EF92FF920E9489
:101E100039036B017C010E943903DC01CB018C1971
:101E20009D09AE09BF09883E9340A105B10598F30D
:101E3000FF90EF90DF90CF9008958091AC078111D3
:101E40000DC082E08093A80784E08093A9071092D8
:101E5000AB071092AA0781E08093AC0788EA97E06D
:101E60000895CF92DF92EF92FF920F931F93E82F86
:101E7000F92F05C0015011092109310961F1908143
:101E800096239417B9F305C00150110921093109AE
:101E900011F1908196239413F7CFC12CD12CE12C12
:101EA000F12C0AC08FEFC81AD80AE80AF80A0C15F4
:101EB0001D052E053F0579F080818623841791F357
:101EC0006C2D7D2D8E2D9F2D1F910F91FF90EF90EA
:101ED000DF90CF90089560E070E080E090E01F9187
:101EE0000F91FF90EF90DF90CF900895CF93DF9305
:101EF000CDB7DEB761970FB6F894DEBF0FBECDBF8A
:101F0000789484B5826084BD84B5816084BD85B5D4
:101F1000826085BD85B5816085BD80916E008160E0
:101F200080936E0010928100809181008260809386
:101F30008100809181008160809381008091800088
:101F400081608093800080919100826080939100F5
:101F500080919100816080939100809190008160D8
:101F6000809390008091C10084608093C100809133
:101F7000C10082608093C1008091C1008160809324
:101F8000C1008091C30081608093C3008091C00034
:101F900082608093C0008091C20081608093C20003
:101FA00080917A00846080937A0080917A008260C8
:101FB00080937A0080917A00816080937A0080918A
:101FC0007A00806880937A0010922A061092C204E8
:101FD0001092C1048091D70081608093D70080EA7D
:101FE0008093D80089B5806189BD89B5826089BD3B
:101FF00009B400FEFDCF0E94030F8091D8008F7CB2
:1020000080618093D8008091E000807F8093E00021
:102010008091E1008E7E8093E1008DE08093E2006C
:10202000559A209AEEEFFFE7859194918B3F9C4D56
:1020300019F481E08093C0048FEF9FEF9093D50651
:102040008093D406E0913B06F0913C0682E08083C9
:10205000E0913706F09138061082E0913906F09150
:102060003A068FEC808310924306E0913F06F09190
:10207000400686E08083E0913D06F0913E06808137
:1020800080618083E0913D06F0913E06808188600A
:102090008083E0913D06F0913E06808180688083D8
:1020A000E0913D06F0913E0680818F7D808383E440
:1020B00097E00E94FA0587E0882E912C60E081E18C
:1020C0000E940A022FB7F89460912B0570912C059D
:1020D00080912D0590912E052FBF0E94771920E049
:1020E00030E04AE754E40E94BE162091A6053091E4
:1020F000A7054091A8055091A9050E94511660932B
:10210000A2057093A3058093A4059093A505109252
:10211000A10588EC96E00E942D01181619065CF4C2
:1021200081E08093A1051092330588EC96E00E942F
:10213000B80A8093A0058091A105882309F452C4B0
:102140008091A00590919F05853561F491110AC099
:1021500080919E058F3FE1F481E080939D058093FF
:102160009F0516C080939E05992391F0E0919D05EF
:10217000E23019F480939C0507C0E33028F0909179
:102180009C05915090939C05F0E0E859FA4F8083AC
:1021900080919D058F5F843318F480939D0504C062
:1021A00010929D0510929F0580919F05882309F448
:1021B00019C480919C05811115C480919D058430BE
:1021C00008F410C410929F0510916B0560916C0586
:1021D00000916D05623009F473C118F4613041F06B
:1021E000FFC3643009F4FAC3653009F4F7C3F8C3D8
:1021F0008FEF698B0E94BE0785E50E94BE07812F85
:102200000E94BE0710916E056989023309F4F2C07D
:1022100050F40E31B9F00F3109F43DC001114DC138
:102220006DE377E03EC10D3309F468C020F40C3350
:1022300009F43EC042C1023409F4E7C0053409F490
:10224000CBC03BC160E0812F0E943A02212F30E0D9
:10225000F901E851FF4F8491F901EC5CFE4F1491B4
:10226000F901EB5EFE4F0491002309F4AEC0811129
:102270000E94CD01E02FF0E0EE0FFF1FE95FFE4F5F
:10228000A591B491EC911E2391E080E009F490E0D7
:10229000692F782F9CC0E12FF0E0EE0FFF1FEA5E60
:1022A000FE4F108160E0812F0E943A02812F99C079
:1022B00087E1698B0E940E0369898834A1E09A073F
:1022C000B8F09C01285431402E3A310560F02E5A66
:1022D00031092E3A310548F0845A92408E3A9105E0
:1022E00030F065E005C062E003C063E001C064E077
:1022F00070E080E090E00E94771984C060E082E0A6
:102300000E940A0283E090E00197F1F761E082E029
:102310000E940A0283E290E00197F1F760E082E018
:102320000E940A02EAE4F1E06491EBE2F1E0E49158
:10233000F0E0EE0FFF1FE95FFE4F8591949100EAF8
:1023400016E821E030E0462F0E94310F611571053B
:102350008105910549F0DC01CB010196A11DB11D5C
:10236000BC01CD019F7003C060E070E0CB010E9412
:1023700077196B017C0120E030E0A9010E9466170B
:1023800018161CF520E030E040E05FE3C701B6011D
:102390000E94D81920E030E04AEA53E40E94D8199C
:1023A00020E030E048EC52E40E94D81920E034E20A
:1023B00044E759E40E94BE1620E030E040E251E4D8
:1023C0000E94D8190E94301702C060E070E0072E0A
:1023D000000C880B990B0BC0113011F483E101C084
:1023E00082E10E940E03BC01990F880B990B0E9499
:1023F000791908C06091A2057091A3058091A40588
:102400009091A5050E94C30758C040E050E06FEBD3
:1024100074E084E497E00E940E0B8091C5049091D3
:10242000C6042091C3043091C40482179307B9F104
:10243000FC01E953FB4F808189831A820091480790
:10244000109149070F5F1F4FB80184E497E00E9485
:10245000E70A882399F0209144073091450780913D
:10246000480790914907BE016F5F7F4F820F931F0E
:102470000E94701910934907009348078091C50482
:102480009091C60401969093C6048093C504843647
:1024900091051CF21092C6041092C504BECF64E4EC
:1024A00077E0CE0101960E94390BCE0101960E9481
:1024B000F90789819A810E9400180E946F0E90C2CC
:1024C00010916E056FEB74E0CE0107960E94530BDE
:1024D000083209F469C1D8F40B3009F4D1C038F4DA
:1024E000013009F44CC00A3009F408C173C200324B
:1024F00009F44AC0023209F44EC00E3109F06AC232
:1025000061E0812F0E943A0260916F0576C100342C
:1025100009F4DDC120F50E3309F473C108F09BC145
:10252000023309F057C22FB7F89460912B057091D0
:102530002C0580912D0590912E052FBF0E947719B3
:1025400020E030E04AE754E40E94BE166093A605FE
:102550007093A7058093A8059093A9053BC2033407
:1025600039F0063409F41EC2013409F033C2DFC168
:10257000812F90E0AFE6B5E0E6E3F5E0E7C183E464
:1025800097E00E94FA0526C261E0812F0E943A027C
:1025900060916F0504C180916F058093340580912F
:1025A000700580933505A0903405B0903505809175
:1025B00071058093340580917205809335050091F3
:1025C000340510913505101611061CF4A114B10440
:1025D00019F460E08BE012C16501E12CF12C60E49C
:1025E00072E48FE090E0A70196010E94961A6901BB
:1025F0007A0128EE33E0D8010E944A166D877E8763
:102600008F87988B8601D7FE02C00F5F1F4F1595ED
:1026100007951801220C331C220C331CB5E02B1A31
:1026200031080D2C000CEE08FF08412C512C320112
:10263000E1E0AE16B10411F460E001C061E08BE0AE
:102640000E940A020230110518F0C1010197F1F74A
:1026500060E08BE00E940A020230110518F0C1010F
:102660000197F1F74C0C5D1C6E1C7F1C8D859E85BF
:10267000AF85B889481659066A067B06C8F2AAC112
:1026800000916F058091A50790E0FC01EE0FFF1F00
:102690008E0F9F1FFC01E85EF84F808186FD06C00B
:1026A00069E070E085EA97E00E94DD048091A2076E
:1026B00090E0FC01EE0FFF1F8E0F9F1FFC01E85EF4
:1026C000F84F808186FD06C06AE070E082EA97E0FC
:1026D0000E94DD04002319F0602F70E002C060E06A
:1026E00070E0193019F485EA97E005C01A3009F056
:1026F00071C182EA97E00E945A046CC190916F0503
:1027000000917005123049F4C0903105D090320527
:1027100015E054E0F52E83E008C0C0902F05D0905E
:10272000300516E047E0F42E88E0002309F45DC18F
:10273000083C08F008EC913029F460E00E940A029D
:1027400061E004C061E00E940A0260E08F2D0E94F7
:102750000A02B601DD0C880B990B0E9479192B0136
:102760003C01602F70E080E090E00E9479196B01DD
:102770007C0120E030E048EC52E4C301B2010E9449
:10278000BE169B01AC01C701B6010E94D8199B017E
:10279000AC01C701B6010E9452160E94371770E0C3
:1027A000812F0E94760216C100916F05E091A50766
:1027B000F0E0CF01880F991FE80FF91FE85EF84F8E
:1027C000808186FF02C08F7B8083E091A207F0E0CA
:1027D000CF01880F991FE80FF91FE85EF84F80813D
:1027E00086FF02C08F7B808361E089E00E943A020D
:1027F00061E08AE00E943A02602F812F0E940A0263
:10280000E9C090916F05809170054091710520910C
:10281000A0073091A107413069F4121613060CF09D
:10282000D9C0883008F0D6C0B401691B710977FDA2
:10283000D1C00DC0121613060CF0CCC0883008F0C1
:10284000C9C0B401691B710977FDC4C040E090E0C4
:102850000E94A50EBFC000916F0598E0099F8001FE
:102860001124025D1E4FD8016C9180E090E00E941F
:10287000C10EF801618181E090E00E94C10ED80193
:1028800012966C9182E090E00E94C10EF801638183
:1028900083E090E00E94C10ED80114966C9184E010
:1028A00090E00E94C10EF801658185E090E00E94F1
:1028B000C10ED80116966C9186E090E00E94C10E80
:1028C000F801678187E090E00E94C10E83C000910B
:1028D0006F05E09070058091A0079091A1071816F0
:1028E00019060CF077C0083008F074C0C12CD12C48
:1028F000F12C10E08091A0079091A10718161906FD
:1029000074F4C4018C199D09A70102C0559547951F
:102910008A95E2F74170B801C6010E94A50EFFEF4B
:10292000CF1ADF0A28E0C216D10421F753C08091E4
:10293000A0079091A107181619060CF04BC060E093
:1029400070E08AE497E00E942F0444C09F01265360
:102950003540281739071CF42D912193F7CFFC013E
:10296000EA5CFA4F1082E6E3F5E001900020E9F717
:102970003197AF014653554066E375E0CE010796A7
:102980000E940E0BBE01695F7F4FCE0101960E942F
:10299000390BCE0101960E947D0E89819A810E9499
:1029A000001818C020916F0580917005843610F4CE
:1029B00090E002C084E690E0243610F430E002C0DB
:1029C00024E630E0309332052093310590933005B2
:1029D00080932F058F8198850E9400180E941E0801
:1029E00010929D050E94B20969CB60E0ACCE809147
:1029F0003D0790913E070E940018809144079091F6
:102A000045070C940018CF93DF9310922E06109276
:102A10002D0688EE93E0A0E0B0E080932F0690931F
:102A20003006A0933106B093320629E834E03093A3
:102A30002C0620932B062DEC30E0309338062093A3
:102A400037062CEC30E030933A062093390628EC18
:102A500030E030933C0620933B0629EC30E0309385
:102A60003E0620933D062AEC30E03093400620934A
:102A70003F062EEC30E03093420620934106109240
:102A80004406109245061092460610924706109290
:102A9000CB061092CA068093CC069093CD06A093E5
:102AA000CE06B093CF0689E994E09093C90680934F
:102AB000C8068FEF9FEF9093D5068093D406809140
:102AC0003C078C30A0F491E0980F90933C078093E2
:102AD000A50790E0FC01EE0FFF1F8E0F9F1FFC016A
:102AE000E85EF84F88EB9BE09283818303C08FEF11
:102AF0008093A50780913C078C30A0F491E0980F5B
:102B000090933C078093A20790E0FC01EE0FFF1F1B
:102B10008E0F9F1FFC01E85EF84F88EB9BE09283CD
:102B2000818303C08FEF8093A207C0E1D0E0D093F0
:102B30009B07C0939A078FE090E090939D07809346
:102B40009C078EE090E090939F0780939E0781E022
:102B500090E09093A1078093A00761E080E10E943C
:102B60003A0261E080919C070E943A0261E0809104
:102B70009E070E943A0261E080919E070E940A022D
:102B8000D0939B07C0939A07EAE5F7E0119287E09C
:102B9000EA39F807D9F7C0E0D0E08091A00790911A
:102BA000A107C817D907E4F520E04FE0BE018AE489
:102BB00097E00E94A803D7FD0EC08091A0079091D6
:102BC000A107C817D9073CF427E04BE0BE018AE40F
:102BD00097E00E94A80320E049E0BE018AE497E064
:102BE0000E94A803D7FD1AC08091A0079091A10769
:102BF000C817D9072CF4BE018AE497E00E942F047D
:102C00008091A0079091A107C817D9073CF420E054
:102C10004CE0BE018AE497E00E94A8032196BDCF54
:102C20006FEB74E084E497E00E94530B1092B707B7
:102C30001092B60788EE93E0A0E0B0E08093B8076A
:102C40009093B907A093BA07B093BB0789EA94E0C1
:102C50009093B5078093B40783E497E00E94FA0548
:102C600065EB74E08DE397E0DF91CF910C94530B0B
:102C7000991B79E004C0991F961708F0961B881FCE
:102C80007A95C9F780950895EE0FFF1F0590F4918E
:102C9000E02D09940E94211BB7FF0895821B930B1E
:102CA00008955058BB27AA270E9469160C945C1AF5
:102CB0000E944E1A38F00E94551A20F039F49F3FB6
:102CC00019F426F40C944B1A0EF4E095E7FB0C94DF
:102CD000451AE92F0E946D1A58F3BA176207730755
:102CE0008407950720F079F4A6F50C948F1A0EF45A
:102CF000E0950B2EBA2FA02D0B01B90190010C010C
:102D0000CA01A0011124FF27591B99F0593F50F423
:102D1000503E68F11A16F040A22F232F342F44277B
:102D2000585FF3CF469537952795A795F040539573
:102D3000C9F77EF41F16BA0B620B730B840BBAF043
:102D40009150A1F0FF0FBB1F661F771F881FC2F7AE
:102D50000EC0BA0F621F731F841F48F487957795C2
:102D60006795B795F7959E3F08F0B0CF9395880F7C
:102D700008F09927EE0F9795879508950E94D2162F
:102D80000C945C1A0E94551A58F00E944E1A40F09A
:102D900029F45F3F29F00C94451A51110C94901AB4
:102DA0000C944B1A0E946D1A68F39923B1F35523C2
:102DB00091F3951B550BBB27AA276217730784074E
:102DC00038F09F5F5F4F220F331F441FAA1FA9F3E4
:102DD00035D00E2E3AF0E0E832D091505040E695D2
:102DE000001CCAF72BD0FE2F29D0660F771F881F33
:102DF000BB1F261737074807AB07B0E809F0BB0B26
:102E0000802DBF01FF2793585F4F3AF09E3F510539
:102E100078F00C94451A0C94901A5F3FE4F3983EB6
:102E2000D4F3869577956795B795F7959F5FC9F722
:102E3000880F911D9695879597F90895E1E0660FA3
:102E4000771F881FBB1F621773078407BA0720F01C
:102E5000621B730B840BBA0BEE1F88F7E095089585
:102E60000E9437176894B1110C94901A08950E942B
:102E7000751A88F09F5798F0B92F9927B751B0F07D
:102E8000E1F0660F771F881F991F1AF0BA95C9F7EE
:102E900014C0B13091F00E948F1AB1E008950C94E3
:102EA0008F1A672F782F8827B85F39F0B93FCCF396
:102EB000869577956795B395D9F73EF4909580956B
:102EC000709561957F4F8F4F9F4F08950E94B41961
:102ED00008F48FEF0895CF93DF938230910510F4BB
:102EE00082E090E0E091C207F091C30720E030E07B
:102EF000C0E0D0E0309711F1408151814817590767
:102F0000C0F04817590761F482819381209719F026
:102F10009B838A832BC09093C3078093C20726C0EC
:102F20002115310519F04217530718F49A01BE0113
:102F3000DF01EF010280F381E02DDCCF21153105A7
:102F400009F1281B390B2430310590F412968D912C
:102F50009C9113976115710521F0FB019383828386
:102F600004C09093C3078093C207FD01329644C00A
:102F7000FD01E20FF31F81939193225031092D93AC
:102F80003C933AC02091C0073091C107232B41F4F4
:102F900020910E0130910F013093C1072093C0079B
:102FA00020910C0130910D012115310541F42DB70F
:102FB0003EB74091100150911101241B350BE09157
:102FC000C007F091C107E217F307A0F42E1B3F0BD7
:102FD0002817390778F0AC014E5F5F4F241735078B
:102FE00048F04E0F5F1F5093C1074093C007819375
:102FF000919302C0E0E0F0E0CF01DF91CF9108951E
:103000000F931F93CF93DF93009709F48CC0FC01BB
:103010003297138212820091C2071091C3070115E3
:10302000110581F420813181820F931F2091C00707
:103030003091C1072817390779F5F093C107E0935C
:10304000C00771C0D80140E050E0AE17BF0750F490
:1030500012962D913C911397AD012115310509F17F
:10306000D901F3CF9D01DA0133832283608171811D
:10307000860F971F8217930769F4EC012881398125
:10308000260F371F2E5F3F4F318320838A819B811C
:1030900093838283452B29F4F093C307E093C207FF
:1030A00042C01396FC93EE931297ED01499159910A
:1030B0009E01240F351FE217F30771F4808191817F
:1030C000840F951F029611969C938E938281938113
:1030D00013969C938E931297E0E0F0E0D80112963D
:1030E0008D919C911397009719F0F8018C01F6CF00
:1030F0008D919C9198012E5F3F4F820F931F2091DD
:10310000C0073091C1072817390769F4309729F4AF
:103110001092C3071092C20702C01382128210934A
:10312000C1070093C007DF91CF911F910F910895C0
:10313000A0E0B0E0EEE9F8E10C94CC1AEC010097C5
:1031400021F4CB010E946B17B8C0FC01E60FF71FFA
:103150009C0122503109E217F30708F4ACC0D901F1
:103160000D911C91119706171707B0F00530110546
:1031700008F49FC0C80104978617970708F499C000
:1031800002501109061B170B019311936D937C9349
:10319000CF010E9400188DC05B01A01AB10A4C013A
:1031A000800E911EA091C207B091C30740E050E08D
:1031B000E12CF12C109709F44AC0A815B905D1F5F6
:1031C0006D907C901197630182E0C80ED11CCA14E7
:1031D000DB0480F1A3014A195B096A0182E0C80E91
:1031E000D11C1296BC9012971396AC91B5E0CB16F9
:1031F000D10440F0B282A38351834083D9016D93FF
:103200007C930AC00E5F1F4FC301800F911FF9010D
:1032100091838083EB2DFA2FE114F10431F0D70173
:103220001396FC93EE93129744C0F093C307E09378
:10323000C2073FC08D919C9111974817590708F418
:10324000AC017D0112960D90BC91A02DB3CF809161
:10325000C0079091C10788159905E1F446175707F3
:10326000C8F480910C0190910D01009741F48DB745
:103270009EB74091100150911101841B950BE817E6
:10328000F907C8F4F093C107E093C007F90171830F
:1032900060830FC0CB010E946B177C01009759F02F
:1032A000A801BE010E946719CE010E940018C70143
:1032B00004C0CE0102C080E090E0CDB7DEB7EEE002
:1032C0000C94E81A81E090E0F8940C94301BFB0118
:1032D000DC0102C001900D9241505040D8F7089592
:1032E000FB01DC0101900D920020E1F70895E894C4
:1032F00009C097FB3EF490958095709561957F4F3E
:103300008F4F9F4F9923A9F0F92F96E9BB279395EB
:10331000F695879577956795B795F111F8CFFAF4FB
:10332000BB0F11F460FF1BC06F5F7F4F8F4F9F4F2C
:1033300016C0882311F096E911C0772321F09EE88A
:10334000872F762F05C0662371F096E8862F70E0F0
:1033500060E02AF09A95660F771F881FDAF7880FCA
:103360009695879597F90895990F0008550FAA0B20
:10337000E0E8FEEF16161706E807F907C0F0121688
:103380001306E407F50798F0621B730B840B950B8B
:1033900039F40A2661F0232B242B252B21F40895E0
:1033A0000A2609F4A140A6958FEF811D811D08957D
:1033B0000E94EB190C945C1A0E944E1A38F00E947D
:1033C000551A20F0952311F00C94451A0C944B1AC1
:1033D00011240C94901A0E946D1A70F3959FC1F3FA
:1033E000950F50E0551F629FF001729FBB27F00DB3
:1033F000B11D639FAA27F00DB11DAA1F649F662708
:10340000B00DA11D661F829F2227B00DA11D621F56
:10341000739FB00DA11D621F839FA00D611D221F10
:10342000749F3327A00D611D231F849F600D211DF4
:10343000822F762F6A2F11249F5750409AF0F1F077
:1034400088234AF0EE0FFF1FBB1F661F771F881FE0
:1034500091505040A9F79E3F510580F00C94451AB9
:103460000C94901A5F3FE4F3983ED4F386957795D9
:103470006795B795F795E7959F5FC1F7FE2B880F86
:10348000911D9695879597F9089597F99F6780E81C
:1034900070E060E008959FEF80EC089500240A94A6
:1034A0001616170618060906089500240A9412161F
:1034B0001306140605060895092E0394000C11F452
:1034C000882352F0BB0F40F4BF2B11F460FF04C0FF
:1034D0006F5F7F4F8F4F9F4F089557FD9058440F58
:1034E000551F59F05F3F71F04795880F97FB991F63
:1034F00061F09F3F79F08795089512161306140620
:10350000551FF2CF4695F1DF08C0161617061806AC
:10351000991FF1CF86957105610508940895E89487
:10352000BB2766277727CB0197F90895052E97FBD0
:103530001EF400940E94AD1A57FD07D00E94FF1A96
:1035400007FC03D04EF40C94AD1A5095409530957D
:1035500021953F4F4F4F5F4F0895909580957095FF
:1035600061957F4F8F4F9F4F08950E94211BA59F0C
:10357000900DB49F900DA49F800D911D112408956E
:10358000B7FF0C94B51A0E94B51A821B930B0895CD
:103590002F923F924F925F926F927F928F929F9263
:1035A000AF92BF92CF92DF92EF92FF920F931F9351
:1035B000CF93DF93CDB7DEB7CA1BDB0B0FB6F89402
:1035C000DEBF0FBECDBF09942A88398848885F8442
:1035D0006E847D848C849B84AA84B984C884DF80B3
:1035E000EE80FD800C811B81AA81B981CE0FD11D97
:1035F0000FB6F894DEBF0FBECDBFED010895A1E276
:103600001A2EAA1BBB1BFD010DC0AA1FBB1FEE1F5C
:10361000FF1FA217B307E407F50720F0A21BB30BA7
:10362000E40BF50B661F771F881F991F1A9469F723
:1036300060957095809590959B01AC01BD01CF017F
:103640000895A29FB001B39FC001A39F700D811D7B
:103650001124911DB29F700D811D1124911D08959B
:1036600011E0C2E0D1E004C0FE010E9444162196A0
:0A367000C330D107C9F7F894FFCF6B
:10367A00FFFFFFFF00E10000000000000000C40798
:10368A00800001000000120013001400150016004B
:10369A001700180019001A001B001C001D0000FC6E
:1036AA00121212FC000000FE9292927C0000007C32
:1036BA0082828244000000FE8282827C000000FE38
:1036CA0092929292000000FE121212020000007CF6
:1036DA0082A2A264000000FE101010FE000000008A
:1036EA0000FE0000000000608080807E000000FE76
:1036FA0010284482000000FE80808080000000FEC6
:10370A00040804FE000000FE081020FE0000007CF1
:10371A008282827C000000FE1212120C0000007CE1
:10372A0082A2C27C800000FE1232528C0000004C41
:10373A00929292640000000202FE02020000007EE1
:10374A008080807E0000003E4080403E000000FEF7
:10375A00402040FE000000C6281028C600000006CF
:10376A0008F00806000000C2A2928A86000000043F
:10377A00847404140C0000202010F8040200001CB9
:10378A008486443C0000008484FC84840000004851
:10379A002898FE0808000084443E04847C00001037
:1037AA00141E7494100000108E84443C0000001013
:1037BA008E88780808000084848484FC000000084D
:1037CA003E88887E08000088928440201800008481
:1037DA0044342CC0000000087E8884A49C000004A5
:1037EA009880403C000000108E94643C0000001059
:1037FA0094947C1210000008908488403C000010C9
:10380A009494741410000000FE1010200000008828
:10381A0088483E08080000808484848480000084EC
:10382A009454245C8000002424F61C2400000080A8
:10383A008040300C0000C03C00000418E000007E0C
:10384A0088888884000000048484443C00000020A6
:10385A00100810204000006404FE04640000000404
:10386A001424C4241C0000004A4A9494000080C016
:10387A00B8864060800000804828106E000000145E
:10388A007C949494000010121CE804241C0000800C
:10389A008484FC8080000000949494FC000000085A
:1038AA000A8A8A4A380000009E80403E000000C012
:1038BA003C00FE8040300000FE804030000000FCEA
:1038CA00848484FC0000001C048484443C000014AA
:1038DA009494543C00000084888040201800000022
:1038EA0010101010100000001000504020000000BE
:1038FA0010781030100000004050704000000000A6
:10390A0000547C00000000000000060006000000D1
:10391A000000040A04000000FE8282FE000000008B
:10392A000084FE8000000000F292929E00000000D7
:10393A00929292FE000000302824FE20000000002F
:10394A009E9292F200000000FE9292F200000000A5
:10395A000E0202FE00000000FE9292FE000000002D
:10396A009E9292FE0000000000DFDF0000000020AF
:10397A00444040442000181818FFFF1818188245C0
:10398A0022100844A2413C42B1D5D5B9423C0000BC
:10399A000601A1110E000205027C82828244020500
:1039AA000200000000001C3E7EFCFC7E3E1CC0E0C3
:1039BA00E07F062418007E464A52524A467E3C421E
:1039CA00819F9191423C3C42A1918985423C404E63
:1039DA0091F595514E20080C0E7F8E4C080040AC94
:1039EA0092B24CA010000048FE24247F120000C1AD
:1039FA008081000000000000004909C5081209F092
:103A0A00080409900900000000B8090D0A2D01B840
:103A1A000A940ACE09000000009B01870180017DFB
:103A2A00017A017901312E312E313033000D0A002D
:00000001FF
